:020000040800F2
:1000000000000120AD660008496500084B65000846
:100010004D6500084F6500085165000800000000AC
:100020000000000000000000000000002141000866
:100030005365000800000000C14100085565000834
:10004000FD660008FD660008FD660008FD66000804
:10005000FD660008FD660008FD660008FD660008F4
:10006000FD660008FD660008FD660008FD660008E4
:10007000FD660008FD660008FD660008FD660008D4
:10008000FD660008FD660008FD660008FD660008C4
:10009000616500087165000881650008FD6600085B
:1000A000FD660008FD660008FD660008FD660008A4
:1000B000FD660008FD660008FD660008FD66000894
:1000C000FD660008FD660008FD660008FD66000884
:1000D000FD660008FD66000891650008FD660008E1
:1000E000A1650008FD660008FD660008FD660008C1
:1000F000FD660008FD660008FD660008FD66000854
:10010000FD6600080000000000000000FD66000819
:10011000FD660008FD660008FD660008FD66000833
:10012000FD660008FD660008FD660008FD66000823
:10013000FD660008FD6600080000000000000000E9
:10014000FD660008FD660008FD660008000000006E
:10015000000000000000000000000000000000009F
:10016000FD660008FD660008FD660008FD660008E3
:10017000FD660008FD660008FD660008FD660008D3
:10018000FD660008FD660008000000000000000099
:04019000FD66000800
:1001A00010B5054C237833B9044B13B10448AFF3B1
:1001B00000800123237010BDA80200200000000071
:1001C000B87900080C4B43B10C480D4910B5AFF39A
:1001D00000800C48036823B910BD0A48036833B98E
:1001E0007047094B002BF7D0BDE810401847064B6D
:1001F000002BF5D0184700BF00000000B8790008B8
:10020000AC020020A80200200000000010F8012B22
:1002100011F8013B012A28BF9A42F7D0D01A704743
:10022000034613F8012B002AFBD1181A0138704736
:1002300001F0FF01102A2BDB10F0070F08D010F897
:10024000013B013A8B422DD010F0070F42B3F6D19B
:10025000F0B441EA012141EA014122F007047FF0B4
:1002600000070023F0E80256083C85EA010586EA0B
:10027000010685FA47F5A3FA87F586FA47F6A5FA47
:1002800087F68EB9EED1F0BC01F0FF0102F0070253
:1002900032B110F8013B013A83EA010313B1F8D1FE
:1002A0000020704701387047002D06BF35460338DF
:1002B000073815F0010F07D1013015F4807F02BF18
:1002C000013015F4C03F0130F0BC0138704700BF69
:1002D00010B504460E4B18784FF47A73B3FBF0F365
:1002E0000C4A1068B0FBF3F000F064FC68B90F2C06
:1002F00001D9012010BD002221464FF0FF3000F04F
:100300001BFC034B5C60002010BD012010BD00BF32
:1003100000000020D400002008B5074A136843F00D
:1003200010031360032000F0F5FB0F20FFF7D0FF50
:1003300006F0C2F8002008BD00200240034A116800
:10034000034B1B780B441360704700BF00C00020B4
:1003500000000020014B1868704700BF00C000205B
:10036000002800F0A18038B5044690F82030D3B1C1
:100370002268136823F002031360FFF7EBFF0546C2
:1003800023685A6812F0020F10D0FFF7E3FF401BFA
:100390000A28F5D9636A43F400336362052384F8BD
:1003A0002030012038BD05F005FFE1E71A6842F072
:1003B00001021A60FFF7CEFF054623685A6812F063
:1003C000010F0DD1FFF7C6FF401B0A28F5D9636A5C
:1003D00043F400336362052384F82030012038BDE4
:1003E000227E012A3DD01A6822F080021A60637EC4
:1003F000012B3BD02268136823F040031360A37ED7
:10040000012B39D02268136823F020031360E37EA8
:10041000012B37D02268136843F010031360237F49
:10042000012B35D02268136823F008031360637F23
:10043000012B33D02268136823F004031360216872
:10044000A368E26813432269134362691343626835
:10045000013A1343CB6100206062012384F820300D
:1004600038BD1A6842F080021A60C0E7226813683B
:1004700043F040031360C2E72268136843F020038F
:100480001360C4E72268136823F010031360C6E703
:100490002268136843F008031360C8E722681368F2
:1004A00043F004031360CAE701207047026890F824
:1004B0002030013BDBB2012B05D9436A43F4802392
:1004C00043620120704770B4D2F8003243F0010358
:1004D000C2F800324B6903F01F03012000FA03F356
:1004E000D2F81C42D8430440C2F81C42CC69ACB9D3
:1004F000D2F80C420440C2F80C424C69CE688D8898
:1005000045EA0645483442F834504C698E680D88F7
:1005100045EA0645483402EBC4046560CC69012C09
:1005200019D08C6974BBD2F804420440C2F804426A
:100530000C696CBBD2F814422040C2F81402096A5C
:1005400001292BD0D2F8003223F00103C2F8003287
:10055000002070BC7047D2F80C421C43C2F80C4219
:100560004C690E688D8845EA0645483442F8345097
:100570004C698E688D8945EA0645483402EBC4040F
:100580006560CEE7D2F804421C43C2F80442CFE7CC
:10059000D2F814021843C2F81402D0E7D2F81C12A1
:1005A0000B43C2F81C32CDE738B590F82030DBB2EF
:1005B000012B05D0436A43F400234362012038BD78
:1005C0000446022380F820300268136823F00103F8
:1005D0001360FFF7BFFE054623685B6813F0010F49
:1005E0000DD0FFF7B7FE401B0A28F5D9636A43F424
:1005F00000336362052384F82030012038BD0020D9
:10060000606238BD38B590F82030DBB2022B05D0DF
:10061000436A43F480134362012038BD04460268F4
:10062000136843F001031360FFF794FE0546236847
:100630005A6812F0010F0DD1FFF78CFE401B0A28FB
:10064000F5D9636A43F400336362052384F82030EC
:10065000012038BD1A6822F002021A60012384F8D2
:100660002030002038BD70B490F820400568AD6897
:10067000013CE4B2012C06D9436A43F4802343626F
:10068000012070BC704715F0E05F5BD0C5F30165D9
:10069000022D3ED80124AC401C608B68002B3ED15B
:1006A00004680E68CB6843EA465605F118031B013F
:1006B000E65003680C6905F1180603EB06135C604D
:1006C0000B7D012B36D00468D17993791B0443EA62
:1006D0000163517943EA012311790B432E0134441C
:1006E000C4F88C310168D47893781B0443EA04631E
:1006F000547843EA0423127813433144C1F8883113
:10070000026818352D01535943F00103535100205D
:10071000B7E7436A43F4000343620120B1E704688A
:100720004E6843EAC603CE68334305F11806360126
:10073000A351BEE7036803EB0613596841F48071C7
:100740005960C0E7436A43F400134362012098E70D
:1007500030B490F82040013CE4B2012C06D9436A41
:1007600043F480234362012030BC704700296FD1DD
:100770000468E46814F0030F64D0056801F11B04F9
:1007800024012C5904F004049460002C6BD10568FA
:1007900001F11B0424012C59640D1460056801F15A
:1007A0001B0424012D59C5F34005D5600568254477
:1007B0006D6805F00F051561056825446D68C5F382
:1007C0000725956105682C446468240C546104680D
:1007D0000A011444D4F8B8411C7004681444D4F8D5
:1007E000B841C4F307245C7004681444D4F8B841D9
:1007F000C4F307449C7004681444D4F8B841240E30
:10080000DC7004681444D4F8BC411C7104681444BE
:10081000D4F8BC41C4F307245C7104681444D4F8D0
:10082000BC41C4F307449C7104682244D2F8BC2143
:10083000120EDA71F9B90268D36843F02003D3606D
:10084000002091E7436A43F40013436201208BE7E1
:100850000468246914F0030F8FD1436A43F4001332
:100860004362012080E7056801F11B0424012C5933
:10087000E408546092E70268136943F020031361AF
:10088000002071E790F82030013BDBB2012B05D945
:10089000436A43F48023436201207047026853692E
:1008A0001943516100207047704770477047704787
:1008B0007047704770477047704770472DE9F84F91
:1008C000054603685C695F689E68D3F80C90D3F8AE
:1008D0001080D3F818A014F0010F5AD016F0010FB1
:1008E00017D001229A6016F0020F08D116F0040FFB
:1008F00030D116F0080F07D04FF4805B0BE0FFF704
:10090000D3FF4FF0000B06E0FFF7D1FF4FF0000BD5
:1009100001E04FF0000B16F4807F0BD02B684FF4F2
:1009200080729A6016F4007F17D116F4806F18D089
:100930004BF4005B16F4803F2DD02B684FF48032CF
:100940009A6016F4003F16D116F4802F17D04BF49E
:10095000004B20E04FF4006BDDE72846FFF7A5FFD2
:10096000E8E716F4006F02D04BF4804BE2E728462C
:10097000FFF79EFFDEE72846FFF798FF0BE016F42F
:10098000002F02D04BF4803B05E02846FFF791FF93
:1009900001E04FF0000B14F0080F07D019F0100F12
:1009A00004D04BF4007B2B681022DA6014F0040FA3
:1009B00002D019F0080F60D114F0020F04D02B6898
:1009C000DB6813F0030F5FD114F0400F07D018F06D
:1009D000100F04D04BF4806B2B6810221A6114F0B6
:1009E000200F02D018F0080F52D114F0100F04D0CD
:1009F0002B681B6913F0030F51D114F4003F02D090
:100A000017F0100F4FD114F4803F02D017F0080FE9
:100A100050D114F4004F67D017F0040F61D014F4D4
:100A2000807F04D01AF0010F01D04BF0010B14F4B9
:100A3000007F04D01AF0020F01D04BF0020B14F427
:100A4000806F04D01AF0040F01D04BF0040B14F4A3
:100A5000006F46D01AF0700A43D0BAF1300F48D078
:100A60002FD9BAF1500F47D0BAF1600F47D0BAF181
:100A7000400F31D14BF0400B2EE02B680822DA609A
:100A80002846FFF717FF97E7284604F0C1FA9BE7CF
:100A90002B6808221A612846FFF70DFFA5E72846B4
:100AA00004F0E8FAA9E72B6810225A602846FFF7FD
:100AB00003FFA8E72B6808225A602846FFF7FDFECF
:100AC000A7E7BAF1100F05D0BAF1200F04D14BF00F
:100AD000100B01E04BF0080B2A68936923F07003B8
:100AE00093612B6804225A60BBF1000F0AD1BDE864
:100AF000F88F4BF0200BEFE74BF0800BECE74BF45B
:100B0000807BE9E76B6A4BEA03036B62284604F0DB
:100B1000E7FAECE7074AD36823F4E0631B041B0CF5
:100B2000000200F4E060184340F0BF6040F4003081
:100B3000D060704700ED00E030B4164BDB68C3F3C3
:100B40000223C3F10704042C28BF04241D1D062D15
:100B500017D9033B012505FA04F4013C21409940D3
:100B600005FA03F3013B1340194300280BDB09018D
:100B7000C9B200F1604000F5614080F8001330BC5C
:100B800070470023E6E700F00F000901C9B2024BED
:100B90001954F4E700ED00E014ED00E0420900F024
:100BA0001F00012303FA00F0014B43F822007047B5
:100BB00000E100E00138B0F1807F0AD2064B5860B6
:100BC000F021064A82F823100020986007221A605C
:100BD00070470120704700BF10E000E000ED00E02A
:100BE000042805D0054A136823F0040313607047F6
:100BF000024A136843F004031360704710E000E0FA
:100C0000034601680A6822F00E020A6001680A6859
:100C100022F001020A60C06B1A6C012101FA02F293
:100C2000426083F82110002083F82000704708B547
:100C300090F82130022B03D004238363012008BDE8
:100C40000268136823F00E0313600268136823F030
:100C500001031360C16B036C012202FA03F34B60C2
:100C600080F82120002380F82030436B13B198478F
:100C7000002008BD002008BD0022044BDA61044AB0
:100C8000136943F0010313610180704708C000201D
:100C9000002002400D4BDB6813F0100F14D00C4AFB
:100CA000D36943F00203D3611023084AD26812F0DB
:100CB000040F06D00649CA6942F00102CA6143F036
:100CC0000403024AD36070470023EEE7002002408D
:100CD00008C000200A4B1B6913F0800F0DD0084B91
:100CE000084A5A6002F188325A601B6913F0800F7B
:100CF00001D001207047002070470020704700BFDE
:100D00000020024023016745034A136943F0800332
:100D100013610020704700BF0020024038B5044630
:100D2000FFF718FB0546154BDB6813F0010F0AD0DF
:100D3000B4F1FF3FF7D0E4B1FFF70CFB401B844256
:100D4000F1D2032038BD0D4BDB6813F0200F02D029
:100D500020220A4BDA60094BDB6813F0100F04D134
:100D6000064BDB6813F0040F05D0FFF793FF01205B
:100D700038BD032038BD002038BD00BF0020024030
:100D80002DE9F843234C247E012C03D1022318467D
:100D9000BDE8F8831E4690460F46044601221D4BCF
:100DA0001A764CF25030FFF7B9FF034670BB012CA6
:100DB00029D0022C24D04FF0040900244C4525D220
:100DC0002101C1F12002A1F1200328FA01F106FA64
:100DD00002F2114326FA03F3194389B207EB4400E8
:100DE000FFF74AFF4CF25030FFF798FF0A4B1D699E
:100DF00025F001051D61034640B90134E4B2DDE789
:100E00004FF00209D9E74FF00109D6E70021014A66
:100E10001176BCE708C00020002002400022064BEB
:100E2000DA61064B1A6942F002021A6158611A69C6
:100E300042F040021A61704708C0002000200240C2
:100E4000F0B583B0002393E04FEAD30E0EF1080E05
:100E500050F82E4003F00706B6000F27B74024EAEB
:100E600007040F6907FA06F6344340F82E408EE077
:100E700086682640CF6807FA0EF73E4386604668CC
:100E800026EA05054E68C6F300169E4035434560C8
:100E9000C5682C408D6805FA0EF52C43C4604C687B
:100EA00014F0805F63D04F4CA56945F00105A56142
:100EB000A46904F001040194019C9C08A61C4A4DFD
:100EC00055F8265003F00306B7000F26BE4025EA6A
:100ED0000605B0F1904F77D0444EB04276D006F57B
:100EE0008066B04274D006F58066B04272D006F5D6
:100EF0008066B04270D006F58066B0426ED006F5CE
:100F00008066B0425ED00726BE4035430234364E7E
:100F100046F82450364C2568D44305EA04064F6849
:100F200017F4803F01D042EA0506314D2E606D680E
:100F300004EA05064F6817F4003F01D042EA0506AF
:100F40002B4D6E60AD6804EA05064F6817F4801FEC
:100F500001D042EA0506264DAE60ED682C404E6891
:100F600016F4001F01D042EA0504214AD46001337F
:100F70000A6832FA03F433D001259D402A40F6D0A6
:100F80004C68022C3FF460AF122C3FF45DAF066852
:100F90004FEA430E032404FA0EF4E44326404F685C
:100FA00007F0030707FA0EF73E4306604E68771E08
:100FB000012F7FF65DAF112E3FF45AAF122E7FF452
:100FC00067AF55E706269FE700269DE701269BE7CA
:100FD000022699E7032697E7042695E7052693E777
:100FE00003B0F0BD001002400000014000040048C2
:100FF000000401400369194201D10020704701201B
:1010000070470AB9816270478161704743695940EE
:101010004161704708B5054B5B69034200D108BDCB
:10102000024B586104F064F8F9E700BF0004014086
:10103000002800F0F78270B582B00446036813F010
:10104000010F5ED0B34B5B6803F00C03042B41D05F
:10105000B04B5B6803F00C03082B34D06368B3F526
:10106000803F00F08980002B40F08C8003F18043AA
:1010700003F504331A6822F480321A601A6822F4E5
:1010800080221A606368002B00F09680FFF762F9F7
:1010900005464FF4003393FAA3F39E4B19684FF4BF
:1010A000003393FAA3F3B3FA83F303F01F0301228F
:1010B00002FA03F3194224D1FFF74CF9401B6428CC
:1010C000E7D90320BDE2934B5B6803F4C033B3F56B
:1010D000803FC3D14FF4003393FAA3F38D4B1968CB
:1010E0004FF4003393FAA3F3B3FA83F303F01F032F
:1010F000012202FA03F3194203D06368002B00F0C7
:101100009982236813F0020F00F09E80814B5B6888
:1011100013F00C0F74D07F4B5B6803F00C03082BAB
:1011200067D0E368002B00F0CD80012292FAA2F391
:10113000B3FA83F303F1845303F584139B001A601D
:10114000FFF708F90546022393FAA3F3714B1968D8
:10115000022393FAA3F3B3FA83F303F01F030122EC
:1011600002FA03F3194240F09E80FFF7F3F8401BA8
:101170000228E8D9032064E2664A136843F4803306
:1011800013607FE7B3F5A02F09D0624B1A6822F4F1
:1011900080321A601A6822F480221A6072E703F122
:1011A0008043A3F53C331A6842F480221A601A681F
:1011B00042F480321A6065E7FFF7CCF805464FF439
:1011C000003393FAA3F3534B19684FF4003393FAA7
:1011D000A3F3B3FA83F303F01F03012202FA03F32C
:1011E00019428ED0FFF7B6F8401B6428E7D90320D8
:1011F00027E2484B5B6803F4C033B3F5004F90D14E
:10120000022393FAA3F3434B1968022393FAA3F33F
:10121000B3FA83F303F01F03012202FA03F3194226
:1012200004D0E368934201D001200AE23948036800
:1012300023F0F8032169F82292FAA2F2B2FA82F2BC
:1012400001FA02F213430360236813F0080F00F061
:101250008D806369002B61D0012191FAA1F2B2FA6D
:1012600082F22D4B13449B001960FFF773F805467B
:10127000022393FAA3F293FAA3F293FAA3F2254A74
:10128000516A93FAA3F3B3FA83F303F01F03012225
:1012900002FA03F3194269D1FFF75CF8401B0228F8
:1012A000E6D90320CDE11B48036823F0F803216948
:1012B000F82292FAA2F2B2FA82F201FA02F213438F
:1012C0000360C1E7012393FAA3F3B3FA83F303F1B5
:1012D000845303F584139B0000221A60FFF73AF849
:1012E0000546022393FAA3F30A4B1968022393FAE3
:1012F000A3F3B3FA83F303F01F03012202FA03F30B
:101300001942A1D0FFF726F8401B0228E9D9032093
:1013100097E100BF0010024020819010012292FA54
:10132000A2F2B2FA82F2C04B13449B0000221A6070
:10133000FFF710F80546022393FAA3F293FAA3F2FB
:1013400093FAA3F2B94A516A93FAA3F3B3FA83F377
:1013500003F01F03012202FA03F3194206D0FEF73D
:10136000F9FF401B0228E6D903206AE1236813F045
:10137000040F00F0B380AD4BDB6913F0805F0BD13D
:10138000AA4BDA6942F08052DA61DB6903F08053DC
:101390000193019B012500E00025A54B1B6813F478
:1013A000807F16D0A368012B27D063BB03F1804355
:1013B00003F504331A6A22F001021A621A6A22F053
:1013C00004021A62A368002B5BD0FEF7C3FF064637
:1013D00045E0974A136843F480731360FEF7BAFF41
:1013E0000646934B1B6813F4807FDBD1FEF7B2FFF8
:1013F000801B6428F5D9032023E18C4A136A43F04B
:1014000001031362DEE7052B09D0884B1A6A22F02C
:1014100001021A621A6A22F004021A62D2E7834BAE
:101420001A6A42F004021A621A6A42F001021A624F
:10143000C8E77E4B196A022393FAA3F3B3FA83F346
:1014400003F01F03012202FA03F3194245D1FEF70C
:1014500081FF801B41F28833984200F2ED80022325
:1014600093FAA3F293FAA3F3B3FA83F35B0943F07D
:101470000203022BDDD0022393FAA3F36B4B596ACC
:10148000D9E7FEF767FF064615E0684B196A0223A5
:1014900093FAA3F3B3FA83F303F01F03012202FAD2
:1014A00003F3194219D0FEF755FF801B41F2883330
:1014B000984200F2C380022393FAA3F293FAA3F3B3
:1014C000B3FA83F35B0943F00203022BDDD002235E
:1014D00093FAA3F3554B596AD9E7B5BBA369002B1F
:1014E00000F0AE80514A526802F00C02082A00F067
:1014F000AA80022B2FD04FF0807393FAA3F3B3FA94
:1015000083F303F1845303F584139B0000221A60D4
:10151000FEF720FF04464FF0007393FAA3F3434B0A
:1015200019684FF0007393FAA3F3B3FA83F303F04F
:101530001F03012202FA03F3194271D0FEF70AFFDA
:10154000001B0228E7D903207BE0384AD36923F047
:101550008053D361C2E74FF0807393FAA3F3B3FAD9
:1015600083F303F1845303F584139B0000221A6074
:10157000FEF7F0FE05464FF0007393FAA3F32B4BF2
:1015800019684FF0007393FAA3F3B3FA83F303F0EF
:101590001F03012202FA03F3194206D0FEF7DAFE16
:1015A000401B0228E7D903204BE0204AD36A23F0EE
:1015B0000F03616A0B43D362536823F47613216AE5
:1015C000E06901430B4353604FF0807393FAA3F338
:1015D000B3FA83F303F1845303F584139B000122D0
:1015E0001A60FEF7B7FE04464FF0007393FAA3F3B8
:1015F0000E4B19684FF0007393FAA3F3B3FA83F319
:1016000003F01F03012202FA03F3194206D1FEF789
:10161000A1FE001B0228E7D9032012E0002010E001
:1016200000200EE001207047208190100010024041
:1016300000700040012004E0032002E0032000E0ED
:10164000002002B070BD0120FBE700BF184B5B68B3
:1016500003F00C02082A29D110B403F470114FF4DE
:10166000701292FAA2F2B2FA82F221FA02F2114C4C
:10167000A05C0F4AD26A02F00F020F2191FAA1F189
:10168000B1FA81F1CA402244127C13F4803F07D1A1
:10169000094BB3FBF2F303FB00F05DF8044B70471A
:1016A000054BB3FBF2F303FB00F0F6E7024870478B
:1016B00000100240D079000800127A00002800F0E3
:1016C000C08070B50446614B1B6803F007038B4272
:1016D0000CD25E4A136823F007030B4313601368B0
:1016E00003F00703994201D0012070BD236813F075
:1016F000020F06D0564A536823F0F003A068034354
:1017000053600D46236813F0010F5AD06368012B14
:101710002DD0022B40D0022292FAA2F24C4A10683D
:10172000022292FAA2F2B2FA82F202F01F02012120
:1017300001FA02F2104200F0868045494A6822F020
:10174000030213434B60FEF705FE0646404B5B6801
:1017500003F00C036268B3EB820F32D0FEF7FAFDA0
:10176000801B41F288339842F0D9032070BD4FF4BA
:10177000003292FAA2F2364A10684FF4003292FA1E
:10178000A2F2B2FA82F202F01F02012101FA02F281
:101790001042D2D1012070BD4FF0007292FAA2F235
:1017A0002B4A10684FF0007292FAA2F2B2FA82F25B
:1017B00002F01F02012101FA02F21042BDD1012004
:1017C00070BD224B1B6803F007039D420CD21F4AD9
:1017D000136823F007032B431360136803F0070318
:1017E0009D4201D0012070BD236813F0040F06D084
:1017F000174A536823F4E063E1680B43536023689E
:1018000013F0080F07D0124A536823F4605321697C
:1018100043EAC1035360FFF719FF0D4B5B6803F008
:10182000F003F02292FAA2F2B2FA82F2D340094A0D
:10183000D35CD840084B18600F20FEF749FD00200C
:1018400070BD01207047012070BD00BF0020024024
:1018500000100240387A0008D4000020014B1868BC
:10186000704700BFD400002008B5FFF7F7FF074B13
:101870005B6803F4E0634FF4E06292FAA2F2B2FA1A
:1018800082F2D340024AD35CD84008BD0010024027
:10189000487A000808B5FFF7E1FF074B5B6803F4DF
:1018A00060534FF4605292FAA2F2B2FA82F2D3403D
:1018B000024AD35CD84008BD00100240487A0008B4
:1018C000F0B583B00446036813F4803F48D0A14BC1
:1018D000DB6913F0805F40F022819E4BDA6942F0B1
:1018E0008052DA61DB6903F080530193019B01258B
:1018F000994B1B6813F4807F00F01381954B1B6A92
:1019000013F4407322D0626802F4407293421DD0F7
:101910009048016A21F440764FF4803393FAA3F2A1
:10192000B2FA82F28D4F3A4492004FF0010EC2F8A3
:1019300000E093FAA3F3B3FA83F33B449B00002245
:101940001A60066211F0010F40F00081814A136AAB
:1019500023F4407361680B431362002D40F028812B
:10196000236813F0010F06D07A4A136B23F00303A8
:10197000A1680B431363236813F0020F06D0754A66
:10198000136B23F44033E1680B431363236813F0B4
:10199000040F06D06F4A136B23F4402321690B43D5
:1019A0001363236813F0200F06D06A4A136B23F0E9
:1019B0001003E1690B431363236813F4003F06D05F
:1019C000644A536823F48003616D0B4353602368BA
:1019D00013F0400F06D05F4A136B23F02003216AF7
:1019E0000B431363236813F4802F06D0594A136BFB
:1019F00023F04003616A0B431363236813F0080F5D
:101A000006D0544A136B23F4401361690B431363EC
:101A1000236813F0100F06D04E4A136B23F44003D3
:101A2000A1690B431363236813F4007F06D0494A6E
:101A3000536823F40003216B0B435360236813F0B6
:101A4000800F06D0434AD36A23F4F873A16A0B438C
:101A5000D362236813F4807F06D03E4AD36A23F40E
:101A60007853E16A0B43D362236813F4805F06D096
:101A7000384A136B23F48073616B0B431363236841
:101A800013F4005F06D0334A136B23F40073216C08
:101A90000B431363236813F4801F06D02D4A136B86
:101AA00023F08073A16B0B431363236813F4001FAF
:101AB00006D0284A136B23F00073E16B0B431363CA
:101AC000236813F4800F06D0224A136B23F480633B
:101AD000616C0B431363236813F4000F06D01D4A97
:101AE000136B23F40063A16C0B431363236813F09F
:101AF000807F06D0174A136B23F40053E16C0B432D
:101B00001363236813F0007F59D0124A136B23F438
:101B10000043216D0B431363002003B0F0BD00258B
:101B2000E6E60D4A136843F480731360FEF712FC77
:101B30000646094B1B6813F4807F7FF4DFAEFEF787
:101B400009FC801B6428F4D90320E6E7FEF702FCB9
:101B500006461BE00010024000700040008190101B
:101B6000184B196A022393FAA3F3B3FA83F303F031
:101B70001F03012202FA03F319427FF4E7AEFEF7D6
:101B8000E9FB801B41F28833984216D8022393FA6E
:101B9000A3F293FAA3F3B3FA83F35B0943F00203CE
:101BA000022BDDD0022393FAA3F3064B596AD9E73F
:101BB000D36923F08053D361D2E60320ADE7002040
:101BC000ABE700BF001002400268136823F4907373
:101BD00013600268936823F001039360202380F868
:101BE0006A30704790F86930DBB2202B01D00220B8
:101BF0007047B9B1C2B190F86830012B16D0C164FA
:101C0000A0F85020A0F852200023C366212280F8BB
:101C1000692080F8683001680A6842F080020A6032
:101C20001846704701207047012070470220704716
:101C300090F86A30DBB2202B01D0022070470029D7
:101C400047D0002A47D090F86830012B45D00123B7
:101C500080F868304165A0F85820A0F85A208368C1
:101C6000B3F5805F06D0A3B9036973B9FF23A0F869
:101C70005C3011E0036923B940F2FF13A0F85C3037
:101C80000AE0FF23A0F85C3006E07F23A0F85C3078
:101C900002E0B3F1805F12D00023C366222280F8F5
:101CA0006A2080F8683001688A6842F001028A6020
:101CB00001680A6842F490720A6018467047036926
:101CC0001BB97F23A0F85C30E6E73F23A0F85C3027
:101CD000E2E701207047012070470220704710B5ED
:101CE00004460268136823F49073136002689368D3
:101CF00023F00103936003689A6812F0400F0AD042
:101D00009A6822F040029A60436E23B100225A631F
:101D1000406EFEF775FF0020A4F85A0023680F22DA
:101D20001A62202384F86A3010BD704708B5406AF3
:101D30000023A0F85A30A0F85230FFF7F6FF08BD94
:101D40007047000010B504460268136823F4F0736E
:101D500013600268936823F001039360036E33B14C
:101D60000268926812F0800F1DD0294A5A63636E90
:101D700033B12268926812F0400F17D0254A5A6397
:101D800023689A6812F0800F13D09A6822F08002BC
:101D90009A60206E18B3FEF74AFF10B3236E00223C
:101DA0005A63012206E000225A63E0E700225A63E8
:101DB000E6E701222368996811F0400F0CD099687A
:101DC00021F040019960606E30B1FEF730FF50B1F4
:101DD000636E00225A6301223AB9002010BD01222D
:101DE000E8E70022E6E70022F6E70023A4F85230F5
:101DF000A4F85A30E36623680F221A62202384F87D
:101E0000693084F86A302046FFF79AFFE5E700BFA3
:101E10004F1E0008191E000808B5406A436E0022D4
:101E20005A63036E13B15B6B03B108BD0023A0F8C6
:101E30005230A0F85A30C36603680F221A6220237A
:101E400080F8693080F86A30FFF77AFFEDE708B56F
:101E5000406A036E00225A63436E13B15B6B03B199
:101E600008BD0023A0F85230A0F85A30C3660368BA
:101E70000F221A62202380F8693080F86A30FFF759
:101E80005FFFEDE790F8693090F86A0018437047FB
:101E900038B5044683680269134342691343C26933
:101EA0001343016808689B4A024013430B60226891
:101EB000536823F44053E1680B435360A369226ADB
:101EC000134321688A6822F4306213438B602568CB
:101ED000914B9D421FD0914B9D422FD0904B9D42E4
:101EE00046D0904B9D425DD08F4B9D4274D01023C5
:101EF000E269B2F5004F00F08B80082B00F20781F9
:101F0000DFE813F0CE00D900E4000501F000050180
:101F100005010501FB0003F558431B6B03F00303A8
:101F2000032B09D8DFE803F0020406720123DFE780
:101F30000423DDE70823DBE71023D9E703F5E633C5
:101F40001B6B03F44033B3F5803F0BD007D9B3F5D7
:101F5000003F09D0B3F5403F08D10223C8E72BB9B1
:101F60000023C5E70423C3E70823C1E71023BFE725
:101F700003F5E4331B6B03F44023B3F5802F0BD040
:101F800007D9B3F5002F09D0B3F5402F08D10223AC
:101F9000AEE72BB90023ABE70423A9E70823A7E7A3
:101FA0001023A5E703F5E2331B6B03F44013B3F5ED
:101FB000801F0BD007D9B3F5001F09D0B3F5401F20
:101FC00008D1022394E72BB9002391E704238FE77C
:101FD00008238DE710238BE703F5E0331B6B03F435
:101FE0004003B3F5800F0BD007D9B3F5000F09D02C
:101FF000B3F5400F08D102237AE72BB9002377E726
:10200000042375E7082373E7102371E702236FE7C2
:10201000082B42D8DFE803F0051722412D4141414A
:102020003800FFF721FC6268530803EB4003B3FB61
:10203000F2F39BB2002023F00F02C3F342031343D9
:102040002268D36038BDFFF725FC6268530803EBB4
:102050004003B3FBF2F39BB20020ECE76268530845
:1020600003F5740303F51053B3FBF2F39BB20020A6
:10207000E1E7FFF7EBFA6268530803EB4003B3FBB9
:10208000F2F39BB20020D6E76268530803F5803371
:10209000B3FBF2F39BB20020CDE701200023CAE797
:1020A000FFF7E2FB636800EB5300B0FBF3F080B294
:1020B000E860002038BDFFF7EDFB636800EB5300DC
:1020C000B0FBF3F080B2E860002038BD62685308CE
:1020D00003F5F40303F59053B3FBF2F39BB2EB600B
:1020E000002038BDFFF7B2FA636800EB5300B0FB85
:1020F000F3F080B2E860002038BD6268530803F551
:102100000043B3FBF2F39BB2EB60002038BD01202B
:1021100038BD00BFF369FFEF0038014000440040C4
:1021200000480040004C004000500040436A13F05B
:10213000010F06D00268536823F40033816A0B4311
:102140005360436A13F0020F06D00268536823F409
:102150008033C16A0B435360436A13F0040F06D007
:102160000268536823F48023016B0B435360436A76
:1021700013F0080F06D00268536823F40043416B44
:102180000B435360436A13F0100F06D00268936844
:1021900023F48053816B0B439360436A13F0200F49
:1021A00006D00268936823F40053C16B0B4393601D
:1021B000436A13F0400F0AD00268536823F4801377
:1021C000016C0B435360036CB3F5801F0BD0436A63
:1021D00013F0800F06D00268536823F40023816C4B
:1021E0000B43536070470268536823F4C003416C8B
:1021F0000B435360EBE72DE9F04105460F461646C9
:102200009846069C2B68DB6937EA03030CBF012361
:102210000023B3421ED1B4F1FF3FF3D02CB1FEF73F
:1022200099F8A0EB08008442ECD22A68136823F4E2
:10223000D07313602A68936823F00103936020230E
:1022400085F8693085F86A30002385F86830032006
:10225000BDE8F0810020BDE8F08130B583B00446D0
:102260000023C366FEF776F8054623681B6813F063
:10227000080F0ED123681B6813F0040F17D1202319
:1022800084F8693084F86A30002084F8680003B06C
:1022900030BD6FF07E430093034600224FF40011DF
:1022A0002046FFF7A8FF0028E4D00320EFE76FF0F7
:1022B0007E4300932B4600224FF480012046FFF717
:1022C0009AFF0028DBD00320E1E778B310B504467D
:1022D00090F869300BB3242384F8693022681368BE
:1022E00023F0010313602046FFF7D2FD01281FD021
:1022F000636ABBB92268536823F490435360226831
:10230000936823F02A0393602268136843F0010363
:1023100013602046FFF7A1FF10BD80F8683004F07D
:1023200099F9D8E72046FFF701FFE3E7012070475E
:1023300010BD90F86930DBB2212B01D0022070472C
:10234000B0F852309BB293B18368B3F5805F1AD076
:102350000268C36C591CC1641B781385B0F85230F5
:102360009BB2013B9BB2A0F852300020704702683C
:10237000136823F0800313600268136843F040037E
:102380001360002070470369002BE1D1C36C026821
:102390001B88C3F308031385C36C0233C364DDE7F2
:1023A00008B501680B6823F040030B60202380F818
:1023B000693003F083FB002008BDB0F85C2090F882
:1023C0006A30DBB2222B06D00268936943F008031F
:1023D00093610220704710B503689B8C9BB28168A3
:1023E000B1F5805F0FD0416D4C1C4465D2B21A40EC
:1023F0000A70B0F85A309BB2013B9BB2A0F85A3039
:102400005BB1002010BD01690029ECD1416D1A407B
:102410000A80436D02334365EBE70268136823F4D7
:10242000907313600268936823F001039360202384
:1024300080F86A3003F048FB002010BD38B5044630
:102440000268D369116813F00F0505D113F0200F4E
:1024500002D011F0200F60D19068002D72D010F0E2
:10246000010502D111F4907F6CD013F0010F07D059
:1024700011F4807F04D001201062E26E0243E26614
:1024800013F0020F07D035B1226802201062E26E0D
:1024900042F00402E26613F0040F07D035B122685F
:1024A00004201062E26E42F00202E26613F0080FAE
:1024B00009D011F0200F00D12DB122680820106240
:1024C000E26E0243E266E26E002A4DD013F0200F66
:1024D00002D011F0200F23D1E36E13F0080F04D1C6
:1024E00023689B6813F0400F26D02046FFF76CFB53
:1024F00023689A6812F0400F1AD09A6822F04002BE
:102500009A60636E83B1234A5A63606EFEF78FFB55
:1025100050B3606E436B984738BDFFF74EFF38BD30
:102520002046FFF74AFFD7E72046FFF7FEFB38BDFE
:102530002046FFF7FAFB38BD2046FFF7F6FB0023E5
:10254000E36638BD13F4801F02D010F4800F0CD165
:1025500013F0800F02D011F0800F12D113F0400F52
:1025600002D011F0400F10D138BD4FF48013136228
:10257000202384F8693084F86A30204600F00CF893
:1025800038BD2046FFF7D5FE38BD2046FFF708FFCF
:10259000EAE700BF2D1D00087047842801D00330F2
:1025A000704700207047EFF30580003018BF01200E
:1025B000704708B500F088FF002008BDF0B585B071
:1025C0000F46446805680669B0F90800FFF7E5FFA3
:1025D00003AB019300903B46B2B22946204600F07F
:1025E000D3FE012802D1039805B0F0BD0020FBE71F
:1025F00008B501F03FFA08BD08B500F0F7FE00206D
:1026000008BD00004FF08052034B1A60BFF34F8F9C
:10261000BFF36F8F0020704704ED00E008B503465C
:1026200000B90123184601F0A1F8002008BD000000
:1026300000B583B01346012909D00022016800913A
:102640000121044801F092FB03B05DF804FB012274
:10265000F4E700BF5C7B000830B585B00546002379
:1026600003930C4601B90124FFF79DFFC0B100237D
:10267000009303AB22460921284601F091FB012873
:1026800002D0FF2005B030BD039BB3B14FF08052A4
:102690000B4B1A60BFF34F8FBFF36F8F0020F1E732
:1026A0000023009322460421284601F079FB0128EB
:1026B00001D0FF20E6E70020E4E70020E2E700BFCA
:1026C00004ED00E010B584B0044600230393FFF747
:1026D0006AFFB8B10022009203AB0821204601F046
:1026E0005FFB012802D0FF2004B010BD039BB3B1F3
:1026F0004FF080520B4B1A60BFF34F8FBFF36F8FB9
:102700000020F1E70022009213460321204601F049
:1027100047FB012801D0FF20E6E70020E4E7002086
:10272000E2E700BF04ED00E010B50846012904D03F
:1027300000F0E0F90446204610BD0322002100F01D
:10274000B5F904460028F6D000231A46194600F0D1
:10275000F1F9F0E730B583B00023019360B30C4684
:102760000546B1F1FF3F0DD001B91C46FFF71BFF35
:10277000B8B101AA0021284600F046FC012804D087
:10278000FF2017E04FF0FF34F0E7019BB3B14FF0AB
:1027900080520C4B1A60BFF34F8FBFF36F8F002036
:1027A00008E0002322461946284600F055FB012880
:1027B00006D0FF2003B030BD8020FBE70020F9E702
:1027C0000020F7E704ED00E010B582B004460023D6
:1027D0000193FFF7E8FEA0B101A9204600F0DDFA61
:1027E000012802D0FF2002B010BD019BABB14FF019
:1027F00080520B4B1A60BFF34F8FBFF36F8F0020D7
:10280000F1E700231A461946204600F093F9012803
:1028100001D0FF20E7E70020E5E70020E3E700BF65
:1028200004ED00E008B500224168006800F03EF9C0
:1028300008BD08B501F024F9012801D001F0F2FC2F
:1028400008BD00F1080343604FF0FF328260C360AF
:1028500003610023036070470023036170474368EE
:102860004B609A688A609A68516099600861036851
:1028700001330360704730B40D68B5F1FF3F02D0FB
:1028800000F1080202E0026904E01A4653681C687D
:10289000A542FAD253684B6099608A605160086122
:1028A00003680133036030BC704703694268816884
:1028B00091608268416851605A68904205D0002258
:1028C0000261186801381860704782685A60F6E73C
:1028D00010B5044601F036FCA26BE36B9A4204D0BB
:1028E000002401F051FC204610BD0124F9E710B589
:1028F000044601F027FCA36B23B1002401F044FC43
:10290000204610BD0124F9E770B504461646856BD4
:10291000026C4AB9036853BB406801F019F90023FF
:1029200063600135A56370BD6EB9806803F030FF48
:10293000226CA3681344A3606268934219D323688E
:10294000A3600020EDE7C06803F022FF236C5B4228
:10295000E2681A44E26021688A4202D26268134443
:10296000E360022E07D145B1013D0020D9E70020E8
:10297000D7E70020D5E70020D3E70020D1E7026C9D
:1029800072B110B50346C4681444C4604068844200
:1029900001D31868D8600846D96803F0F9FE10BD65
:1029A000704738B5054601F0CDFB95F8454064B257
:1029B00001E0013C64B2002C0ADD6B6A43B105F111
:1029C000240000F0B9FF0028F3D001F04BF8F0E745
:1029D000FF2385F8453001F0D7FB01F0B3FB95F8F4
:1029E000444064B201E0013C64B2002C0ADD2B6972
:1029F00043B105F1100000F09FFF0028F3D001F073
:102A000031F8F0E7FF2385F8443001F0BDFB38BD15
:102A100038B530B304460D4601F094FB2168E26BF3
:102A2000236C03FB021060600020A063A160013AE8
:102A300002FB0313E360FF2384F8443084F845303D
:102A4000C5B92369F3B104F1100000F075FFC8B1F6
:102A50004FF080520D4B1A60BFF34F8FBFF36F8F53
:102A600010E04FF0500383F31188BFF36F8FBFF373
:102A70004F8FFEE704F11000FFF7E3FE04F124009E
:102A8000FFF7DFFE01F080FB012038BD04ED00E020
:102A900010B5029B0C4639B11A60D8631C64012141
:102AA0001846FFF7B5FF10BD1B60F6E740B94FF0C1
:102AB000500383F31188BFF36F8FBFF34F8FFEE78F
:102AC000F0B583B0054611B101FB00F000E0002035
:102AD00017460C46483001F0CBFC064638B1009052
:102AE0003B4600F1480221462846FFF7D1FF304619
:102AF00003B0F0BD40B94FF0500383F31188BFF32A
:102B00006F8FBFF34F8FFEE7884208D24FF050031C
:102B100083F31188BFF36F8FBFF34F8FFEE710B5BC
:102B20000C4602220021FFF7C1FF034600B1846377
:102B3000184610BDF0B585B0019260B1044699B158
:102B40000125BDB94FF0500383F31188BFF36F8F98
:102B5000BFF34F8FFEE74FF0500383F31188BFF3AD
:102B60006F8FBFF34F8FFEE7026C0AB90125E8E7CC
:102B70000025E6E7022B09D06DB94FF0500383F32F
:102B80001188BFF36F8FBFF34F8FFEE7E26B012A0F
:102B9000F2D00025F0E71E460F4600F071FF10B995
:102BA000019B03B1002545B94FF0500383F3118811
:102BB000BFF36F8FBFF34F8FFEE700252CE0324647
:102BC00039462046FFF7A0FE636A8BB104F124006A
:102BD00000F0B2FE38B14FF08052374B1A60BFF3AD
:102BE0004F8FBFF36F8F01F0CFFA012005B0F0BD1A
:102BF0000028F8D04FF080522F4B1A60BFF34F8F50
:102C0000BFF36F8FEFE701F0BFFA0020EEE7204639
:102C1000FFF7C7FE00F030FD01F094FAA26BE36B02
:102C20009A42CCD3022ECAD0019B002BEBD01DB907
:102C300002A800F0C3FE012501F0A6FA00F082FC14
:102C400001F080FA94F844305BB2B3F1FF3F02D157
:102C5000002384F8443094F845305BB2B3F1FF3F71
:102C600002D1002384F8453001F08EFA01A902A8B0
:102C700000F0B8FEC8B92046FFF72AFE0028C6D0EB
:102C8000019904F1100000F01FFE2046FFF789FEB5
:102C900000F0F2FC0028BFD14FF08052064B1A60C2
:102CA000BFF34F8FBFF36F8FB6E72046FFF779FE74
:102CB00000F0E2FC002099E704ED00E02DE9F84384
:102CC00060B1044699B10120B8B94FF0500383F3C5
:102CD0001188BFF36F8FBFF34F8FFEE74FF05003A4
:102CE00083F31188BFF36F8FBFF34F8FFEE7006C44
:102CF00008B90120E8E70020E6E7022B09D068B90F
:102D00004FF0500383F31188BFF36F8FBFF34F8FE2
:102D1000FEE7E56B012DF2D00020F0E71F4690465C
:102D2000894601F01FFBEFF311864FF0500383F348
:102D30001188BFF36F8FBFF34F8FA26BE36B9A4283
:102D400001D3022F21D194F845506DB23A4649463D
:102D50002046FFF7D9FDB5F1FF3F10D1636AB3B14B
:102D600004F1240000F0E8FD98B1B8F1000F12D092
:102D70000120C8F8000086F31188BDE8F8836B1CB9
:102D80005BB284F845300120F5E70020F3E701202D
:102D9000F1E70120EFE70120EDE760B170B50446EF
:102DA000036C8BB14FF0500383F31188BFF36F8F27
:102DB000BFF34F8FFEE74FF0500383F31188BFF34B
:102DC0006F8FBFF34F8FFEE7036853B1012373B9D1
:102DD0004FF0500383F31188BFF36F8FBFF34F8F12
:102DE000FEE743680BB90123F1E70023EFE70E4646
:102DF00001F0B8FAEFF311854FF0500383F3118817
:102E0000BFF36F8FBFF34F8FA26BE36B9A421AD25F
:102E100094F845305BB20132A263B3F1FF3F0CD1AD
:102E2000636A93B104F1240000F086FD78B186B1A5
:102E30000120306085F3118870BD01335BB284F8E6
:102E400045300120F6E70020F4E70120F2E70120F9
:102E5000F0E70120EEE700002DE9F04184B0019297
:102E600060B1044699B10125BDB94FF0500383F319
:102E70001188BFF36F8FBFF34F8FFEE74FF0500302
:102E800083F31188BFF36F8FBFF34F8FFEE7026CA0
:102E90000AB90125E8E70025E6E71F46884600F065
:102EA000EFFD10B9019B03B1002545B94FF0500368
:102EB00083F31188BFF36F8FBFF34F8FFEE70026B8
:102EC0005DE0E66841462046FFF759FDDFB9013D68
:102ED000A563236813B900F097FE6060236963B1AE
:102EE00004F1100000F028FD38B14FF08052454B3E
:102EF0001A60BFF34F8FBFF36F8F01F045F90120C8
:102F000004B0BDE8F081E660636A002BF5D004F1FF
:102F1000240000F011FD0028EFD04FF08052394B13
:102F20001A60BFF34F8FBFF36F8FE6E701F02CF904
:102F30000020E5E702A800F041FD012629E000237A
:102F400084F8443031E0002384F8453033E001F068
:102F5000F9F8606800F0A4FD01F016F93BE02046A6
:102F6000FFF71FFD00F088FB09E02046FFF719FD81
:102F700000F082FB2046FFF7BAFC002840D101F0A8
:102F8000E1F8A56B002D9CD1019B002BCED0002E2B
:102F9000D0D001F0F9F800F0D5FA01F0D3F894F8A8
:102FA00044305BB2B3F1FF3FC9D094F845305BB217
:102FB000B3F1FF3FC7D001F0E7F801A902A800F084
:102FC00011FD0028D1D12046FFF791FC0028C6D082
:102FD0002368002BBBD0019904F1240000F074FC9D
:102FE0002046FFF7DEFC00F047FB0028C7D14FF07A
:102FF0008052044B1A60BFF34F8FBFF36F8FBEE751
:1030000000207DE704ED00E02DE9F84360B10446BF
:1030100099B10123BBB94FF0500383F31188BFF37B
:103020006F8FBFF34F8FFEE74FF0500383F311888C
:10303000BFF36F8FBFF34F8FFEE7036C0BB9012314
:10304000E8E70023E6E71746894601F08BF9EFF33E
:1030500011864FF0500383F31188BFF36F8FBFF3D6
:103060004F8FD4F83880B8F1000F20D094F8445036
:103070006DB249462046FFF782FC08F1FF33A36397
:10308000B5F1FF3F0DD123699BB104F1100000F0B1
:1030900053FC80B18FB10120386086F31188BDE800
:1030A000F8836B1C5BB284F844300120F5E7002004
:1030B000F3E70120F1E70120EFE70120EDE7000051
:1030C0000023072B0CD8074A52F833200AB10133EA
:1030D000F7E7044A42F8331002EBC3035860704725
:1030E000704700BF28C0002070B504460D46164644
:1030F00001F028F894F844305BB2B3F1FF3F0DD0F3
:1031000094F845305BB2B3F1FF3F0BD001F03CF8CF
:10311000A36B5BB12046FFF744FC70BD002384F82D
:103120004430EDE7002384F84530EFE73246294686
:1031300004F1240000F0E2FBECE70000094B9B6A7D
:103140001B6843B9012343B9064B9A6AD268D26817
:103150005268DA6270470023F5E74FF0FF32014B07
:10316000DA627047C402002010B50446006B01F01B
:1031700003FA204601F000FA10BD2DE9F047804621
:103180009946089D099F0A9C266B02F18042013AEC
:1031900006EB820626F0070600230F2B07D8C85C33
:1031A000E21882F83400CA5C0AB10133F5E7002363
:1031B00084F84330062D00D90625E56265644FF09A
:1031C000000AC4F848A0201DFFF746FB04F11800D0
:1031D000FFF742FB2461C5F10705A5616462C4F8ED
:1031E0004CA084F850A04A464146304600F082FF89
:1031F000206007B13C60BDE8F087000070B5002496
:1032000007E004EB8402930010481844FFF719FB11
:103210000134062CF5D90E4C04F1BC063046FFF7FC
:1032200010FB04F1D0052846FFF70BFB04F1140056
:10323000FFF707FB04F1E400FFF703FB2046FFF76D
:1032400000FBA662C4F8F85070BD00BFF402002075
:10325000C402002038B5054600F074FF264BD3F8B1
:10326000FC200132C3F8FC20D3F80031002B38D009
:10327000214BD3F804314BB91F4BD3F80031DA6A34
:10328000EB6A9A4202D81C4BC3F800511A4CD4F88E
:1032900008310133C4F80831EB6A01229A40D4F8AE
:1032A0000C110A43C4F80C2104F1300003EB830332
:1032B0009A00291D1044FFF7D2FA00F065FFD4F8F8
:1032C00004316BB1D4F80031DA6AEB6A9A4207D262
:1032D0004FF08052094B1A60BFF34F8FBFF36F8FCF
:1032E00038BD054BC3F80051D3F8FC30012BCDD1CC
:1032F000FFF784FFCAE700BFC402002004ED00E02E
:1033000070B504460E461F4BD3F81051D3F8000198
:103310000430FFF7CAFA60B91A4BD3F80021D16A1A
:10332000012202FA01F1D3F80C2122EA0102C3F8CA
:103330000C21B4F1FF3F12D02C44124BD3F80031D2
:103340005C60A54214D80F4DA86AD5F8001104316D
:10335000FFF791FAEB6A9C4200D2EC6270BD002E3E
:10336000EAD00848D0F800110431FFF778FA70BDB0
:10337000044BD3F8F800D3F800110431FFF77BFABF
:1033800070BD00BFC40200202DE9F04385B00646A1
:103390000F4615469846900001F06AF800B3814642
:1033A000542001F065F80446B0B1C0F83090CCB1BB
:1033B0000023039302940D9B01930C9B00934346BF
:1033C0002A4639463046FFF7D8FE2046FFF742FF2F
:1033D000012005B0BDE8F083484601F0CDF8E6E7EE
:1033E0000024E4E74FF0FF30F3E7000070B5044637
:1033F00000F0A8FE002C3DD0261D3046FFF755FA00
:1034000088B9E26A02EB820399002D4B0B441B6BD7
:103410004BB9012303FA02F22949D1F80C3123EA0E
:103420000203C1F80C31A36A1BB104F11800FFF7C5
:103430003CFA234BD3F808210132C3F80821D3F812
:1034400000319C421AD01E4AD2F8FC30013BC2F82F
:10345000FC302046FFF788FEFFF770FE00F094FE78
:10346000174BD3F8043123B1154BD3F800319C42EC
:1034700010D070BD124BD3F80041BDE7104D31465E
:1034800005F1E400FFF7EBF9D5F814310133C5F885
:103490001431E3E70A4BD3F8183143B14FF050032E
:1034A00083F31188BFF36F8FBFF34F8FFEE74FF0A9
:1034B0008052044B1A60BFF34F8FBFF36F8FD8E772
:1034C000C402002004ED00E000B583B0194B019365
:1034D00000230093802218491848FFF755FF012860
:1034E00007D0012808D0B0F1FF3F1AD003B05DF833
:1034F00004FB00F011FCF4E74FF0500383F3118854
:10350000BFF36F8FBFF34F8F0D4B4FF0FF32DA6277
:103510000122C3F804210022C3F8102100F0AEFEFE
:10352000E4E74FF0500383F31188BFF36F8FBFF3CD
:103530004F8FFEE7E00300205C7A00081138000896
:10354000C4020020034AD2F818310133C2F81831FE
:10355000704700BFC4020020014BD3F81001704730
:10356000C40200202DE9F041424BD3F81831002B62
:1035700070D1404BD3F810510135C3F81051CDB97B
:103580009B6A1B6843B14FF0500383F31188BFF36C
:103590006F8FBFF34F8FFEE7364B9A6AD3F8F81060
:1035A0009962C3F8F820D3F820210132C3F8202112
:1035B000FFF7C4FD2F4BDB6A9D423FD200242D4A0A
:1035C000D2F80031DB6A03EB830399000A44136BE2
:1035D000012B46D9012444E00124264B9B6A1B6839
:1035E00073B3002373BB234B9B6ADB68DE6873688D
:1035F0009D422CD306F104084046FFF756F9B36A02
:103600001BB106F11800FFF750F9F36A01229A4046
:10361000184FD7F80C110A43C7F80C2107F13000F6
:1036200003EB83039A0041461044FFF718F9F26A4E
:10363000D7F80031DB6A9A42CED2CEE70024CCE73D
:103640000123CFE74FF0FF320A4BDA62B7E7094AAE
:10365000D362B4E7074AD2F824310133C2F82431E7
:103660000024044BD3F8283103B101242046BDE8DF
:10367000F08100BFC40200203A4BD3F8183143B99F
:103680004FF0500383F31188BFF36F8FBFF34F8F59
:10369000FEE770B500F056FD324BD3F81821013A21
:1036A000C3F81821D3F81831002B57D12D4BD3F87C
:1036B000FC3023B9002400F067FD204670BD0024D3
:1036C000284B5B692BB3274D2B6ADC6804F118008B
:1036D000FFF7EBF8261D3046FFF7E7F8E36A012213
:1036E0009A40D5F80C110A43C5F80C2105F13000B9
:1036F00003EB83039A0031461044FFF7B0F8E26A07
:10370000D5F80031DB6A9A42DAD30122C5F82821C4
:10371000D6E70CB1FFF712FD124BD3F824417CB968
:10372000104BD3F82831DBB14FF080520E4B1A60AA
:10373000BFF34F8FBFF36F8F0124BCE7013C08D06C
:10374000FFF710FF0028F9D00122064BC3F828210B
:10375000F4E70022034BC3F82421E1E70024AAE7A1
:103760000024A8E7C402002004ED00E010B5B0B1C9
:103770000446104BD3F8183143B14FF0500383F394
:103780001188BFF36F8FBFF34F8FFEE7FFF7DAFEAD
:1037900000212046FFF7B4FDFFF76EFF00E0002098
:1037A00038B94FF08052044B1A60BFF34F8FBFF30C
:1037B0006F8F10BDC402002004ED00E038B5134B3C
:1037C000D3F814310BB3FFF7BDFE104BD3F8E44030
:1037D000FFF752FF002CF2D000F0B4FC0B4CD4F8F1
:1037E000F030DD68281DFFF760F8D4F8FC30013BAD
:1037F000C4F8FC30D4F81431013BC4F8143100F0A3
:10380000C3FC2846FFF7B0FCD9E738BDC40200204E
:1038100008B5FFF7D3FF064B1B6B012BF9D94FF00F
:103820008052044B1A60BFF34F8FBFF36F8FF0E7E6
:10383000C402002004ED00E0224BD3F81831CBB9CC
:10384000204A0023C2F82831D2F80C31B3FA83F3AE
:10385000DBB2C3F11F0303EB830081000A44126B48
:103860006AB94FF0500383F31188BFF36F8FBFF332
:103870004F8FFEE70122134BC3F82821704710B485
:10388000104A9900CC18A0001044446B646844634B
:1038900030321944880001460830024494420BD06B
:1038A000084903EB83039A000A44536BDB68C1F8B1
:1038B00000315DF8044B70476068024A0A44506367
:1038C000EEE700BFC402002040B94FF0500383F37D
:1038D0001188BFF36F8FBFF34F8FFEE710B50C4613
:1038E000054BD3F800111831FEF7C5FF0121204622
:1038F000FFF706FD10BD00BFC402002038B578B147
:103900000C4615460B4AD2F800111831FEF7A7FFF6
:103910000DB14FF0FF3429462046FFF7F1FC38BDCA
:103920004FF0500383F31188BFF36F8FBFF34F8FB6
:10393000FEE700BFC402002038B5C368DC684CB3A2
:1039400004F118052846FEF7B0FF1A4BD3F81831DA
:103950004BBB251D2846FEF7A8FFE36A01219940CD
:10396000144AD2F80C010143C2F80C11303203EBB7
:103970008303980029461044FEF771FFE26A0D4B5D
:10398000D3F80031DB6A9A4212D90120094BC3F8FF
:10399000280138BD4FF0500383F31188BFF36F8FB8
:1039A000BFF34F8FFEE729460348FEF758FFE5E7D0
:1039B000002038BDC4020020D802002038B1084AD7
:1039C000D2F820110160D2F81021426070474FF008
:1039D000500383F31188BFF36F8FBFF34F8FFEE760
:1039E000C402002038B5D0B1044609B30D4600F03A
:1039F000A9FB1B4BD3F810112B68B3F1FF3F2BD061
:103A00002068174AD2F82021904202D06268914281
:103A100024D26268881A834213D8012418E04FF038
:103A2000500383F31188BFF36F8FBFF34F8FFEE70F
:103A30004FF0500383F31188BFF36F8FBFF34F8FA5
:103A4000FEE7521A13442B602046FFF7B7FF00240D
:103A500000F09AFB204638BD0024F9E70124F7E77F
:103A6000C40200200122024BC3F82821704700BF86
:103A7000C4020020014BD3F800017047C4020020AB
:103A8000064BD3F804312BB1044BD3F818311BB9D2
:103A9000022070470120704700207047C4020020B8
:103AA00000284FD038B50546C36A2749D1F8001120
:103AB000C96A8B4218D28169002906DB2249D1F8F4
:103AC0000011C96AC1F107018161686903EB8303D1
:103AD00099001E4B0B44984207D000233BB91A4B68
:103AE000D3F80031DB6AEB6238BD0123F6E72C1D09
:103AF0002046FEF7DAFE80B9EA6A02EB82039900FB
:103B0000114B0B441B6B43B9012393400E49D1F871
:103B10000C2122EA0302C1F80C210B48D0F8003135
:103B2000DB6AEB6201229A40D0F80C110A43C0F81C
:103B30000C21303003EB83039A0021461044FEF73A
:103B40008EFE38BD704700BFC4020020F402002082
:103B5000002850D038B504462A4AD2F800219042B5
:103B600008D04FF0500383F31188BFF36F8FBFF37A
:103B70004F8FFEE7826C42B94FF0500383F31188F8
:103B8000BFF36F8FBFF34F8FFEE7013A8264C06AC5
:103B9000616C884231D092BB251D2846FEF785FE18
:103BA00088B9E26A02EB82039900164B0B441B6B47
:103BB0004BB9012303FA02F21249D1F80C3123EA7E
:103BC0000203C1F80C31636CE362C3F10702A26126
:103BD000012404FA03F10B4AD2F80C010143C2F8A4
:103BE0000C11303203EB8303980029461044FEF792
:103BF00036FE204638BD00207047002038BD00202A
:103C000038BD00BFC4020020064BD3F800312BB1F1
:103C1000044BD3F80021936C01339364014BD3F828
:103C200000017047C4020020064B1A681368B3FAFB
:103C300083F35B09036013B9D368186870470020E9
:103C4000704700BFF003002008B541600061914259
:103C50000CD8D21A83699A4201D3012008BD011DF4
:103C6000094B5868FEF707FE002008BD9A4201D2B2
:103C7000994206D2011D044B1868FEF7FCFD002096
:103C800008BD012008BD00BFF003002070B500F0A2
:103C900059FA0F4B9B6813B100F076FA70BD0C4CCB
:103CA00004F10C063046FEF7CCFD04F12005284651
:103CB000FEF7C7FD2660656000220C210A20FEF792
:103CC000F5FEA0600028E7D00249FFF7F9F9E3E725
:103CD000F0030020647A00082DE9F041079C41B907
:103CE0004FF0500383F31188BFF36F8FBFF34F8FF3
:103CF000FEE70F4674B11D4616468046FFF7C6FF25
:103D0000C4F80080A761E6612562069B6362201DFE
:103D1000FEF7A2FDBDE8F08100B583B0FFF7B6FF66
:103D20000E4B9B68A3B10E4B01930223009300231B
:103D30004FF480720B490C48FFF726FB50B94FF047
:103D4000500383F31188BFF36F8FBFF34F8FFEE7EC
:103D50000020F3E703B05DF804FB00BFF003002090
:103D6000240400206C7A0008754000082DE9F04119
:103D700082B005460E4617469846282000F078FB8C
:103D8000044640B10190089B009343463A463146B1
:103D90002846FFF7A1FF204602B0BDE8F0810000F1
:103DA000C0B130B585B015460446174A906840B397
:103DB0001A4601910295039405291CDCFFF760FE69
:103DC000022810D000231A4601A90F488068FEF788
:103DD000B1FE14E04FF0500383F31188BFF36F8FEF
:103DE000BFF34F8FFEE70023089A01A906488068B9
:103DF000FEF7A0FE03E0002301A9FEF75FFF05B078
:103E000030BD0020FBE700BFF0030020204B1B6803
:103E10001A68002A37D070B582B0DB681E68DC688B
:103E2000251D2846FEF741FD636A20469847E36951
:103E3000012B0AD0164B1B681A68002AEDD1144AD0
:103E400051681160536002B070BDA36933449E4253
:103E500007D26360246129460D4B1868FEF70BFDFD
:103E6000E8E7002100910B4632462046FFF798FF15
:103E70000028DFD14FF0500383F31188BFF36F8F19
:103E8000BFF34F8FFEE7024A5168116053607047DD
:103E9000F003002038B50546FFF75EFB0446074BEC
:103EA0009B6B984205D300232B60044B9C632046F8
:103EB00038BDFFF7ABFF01232B60F6E7F0030020CE
:103EC00070B582B005460E46144B1B68DB68DC6893
:103ED000201DFEF7EAFCE369012B04D0636A20464B
:103EE000984702B070BDA1692B463246294420464E
:103EF000FFF7AAFE0028F1D0002100910B462A46C8
:103F00002046FFF74DFF0028E8D14FF0500383F320
:103F10001188BFF36F8FBFF34F8FFEE7F0030020D0
:103F200070B582B006460C46FFF70CFB01A8FFF700
:103F3000B1FF019B23BB05460CB9B04219D22CB18D
:103F4000114B5B681C68B4FA84F464092246711B47
:103F50000D4B9868FFF7C8F8FFF78EFB38B94FF0A4
:103F600080520A4B1A60BFF34F8FBFF36F8F02B0BE
:103F700070BDFFF781FB29463046FFF7A1FFF6E74A
:103F8000FFF77AFBF3E700BFF003002004ED00E049
:103F900030B587B000231A4603A935488068FEF77C
:103FA0005BFF002861D0039B002BF3DB059C63695A
:103FB00013B1201DFEF779FC02A8FFF76BFF039BEE
:103FC000092BE7D801A252F823F000BFF53F000803
:103FD000F53F0008F53F0008953F00083D40000808
:103FE00063400008F53F0008F53F0008953F0008D2
:103FF0003D4000080499A5690B4602462944204625
:10400000FFF722FE0028C5D0636A20469847E3697F
:10401000012BBFD1A269002100910B4604980244F4
:104020002046FFF7BDFE0028B4D14FF0500383F3C4
:104030001188BFF36F8FBFF34F8FFEE70499A16123
:1040400031B10346024601442046FFF7FDFDA1E7DA
:104050004FF0500383F31188BFF36F8FBFF34F8F7F
:10406000FEE7204600F088FA94E707B030BD00BFB5
:10407000F003002000B583B001A8FFF7D5FD01993A
:10408000FFF74EFFFFF784FFF6E700000B4B1B68BE
:10409000B3F1FF3F08D04FF0500383F31188BFF313
:1040A0006F8FBFF34F8FFEE74FF0500383F31188FC
:1040B000BFF36F8FBFF34F8FFEE700BF08000020F4
:1040C00006480068006880F3088862B661B6BFF3EE
:1040D0004F8FBFF36F8F00DF00BF000008ED00E0DF
:1040E000DFF80C00016841F47001016070470000C6
:1040F00088ED00E04FF0807340F8043C21F00101AE
:1041000040F8081C054B40F80C3C40F8202C6FF0A0
:10411000020340F8243C4438704700BF8D4000083B
:10412000074B19680868B0E8F04F80F30988BFF3BF
:104130006F8F4FF0000080F311887047AFF300805D
:10414000C40300204FF0500383F31188BFF36F8F37
:10415000BFF34F8F0A4A136801331360012B0DD14F
:10416000084B1B6813F0FF0F08D04FF0500383F388
:104170001188BFF36F8FBFF34F8FFEE7704700BF0B
:104180000800002004ED00E0094B1B6843B94FF024
:10419000500383F31188BFF36F8FBFF34F8FFEE798
:1041A000013B034A13600BB983F31188704700BFCA
:1041B00008000020000000000000000000000000D7
:1041C000EFF30980BFF36F8F154B1A681EF0100FC5
:1041D00008BF20ED108A20E9F04F10604DF8043D33
:1041E0004FF0500080F31188BFF34F8FBFF36F8FF4
:1041F000FFF722FB4FF0000080F3118808BC19681C
:104200000868B0E8F04F1EF0100F08BFB0EC108A3D
:1042100080F30988BFF36F8F704700BFAFF3008052
:10422000C403002008B54FF0500383F31188BFF397
:104230006F8FBFF34F8FFFF795F918B14FF0805292
:10424000024B1A60002383F3118808BD04ED00E0DF
:10425000064B1B68064AA2FB03239B09013B054A48
:1042600013600722044B1A60704700BFD40000207F
:10427000D34D621014E000E010E000E0314B1A680A
:10428000314B9A4219D02F4B1A68304B9A421DD0AD
:1042900000B583B02E4B1A78D2B20192FF221A7069
:1042A0001B78DBB28DF803309DF8033003F0500328
:1042B000284A1370072353601BE04FF0500383F329
:1042C0001188BFF36F8FBFF34F8FFEE74FF050039E
:1042D00083F31188BFF36F8FBFF34F8FFEE71D4A43
:1042E0005368013B53609DF803305B00DBB28DF8EF
:1042F00003309DF8033013F0800FF0D1154A536856
:104300001B0203F4E0635360019BDBB2104A13709D
:10431000114B1A6842F470021A601A6842F0704237
:104320001A60FFF795FF00220C4B1A60FFF7D8FECA
:104330000B4A136843F040431360FFF7C1FEFFF7D9
:10434000A5FE00BF00ED00E071C20F4170C20F4139
:1043500000E400E02C04002020ED00E00800002034
:1043600034EF00E0EFF305830F2B0FD9104A9B5C6D
:10437000DBB2104A1278934208D24FF0500383F315
:104380001188BFF36F8FBFF34F8FFEE70A4B1B6897
:1043900003F4E063074A5268934208D94FF0500390
:1043A00083F31188BFF36F8FBFF34F8FFEE7704722
:1043B000F0E300E02C0400200CED00E0144A12F0C1
:1043C000070F21D0D11D21F00701C1F53B438033F8
:1043D00013440A460F49C1F8D8200020C1F8DC0078
:1043E0001344083B23F00703C1F8E030586018601D
:1043F000981A50601360C1F8E400C1F8E8004FF06B
:104400000043C1F8EC3070474BF68033E2E700BF61
:1044100034040020DCBE002010B4134B1A68824222
:104420001CD359685C18A04203D14068014459600C
:10443000184641684418A24214D10C4CD4F8E0400C
:10444000A2420DD05268114441601A68126802609D
:10445000984200D018605DF8044B70471346DDE7C2
:104460000460F5E70260F3E7B4BF0020DCBE002083
:1044700070B50446FFF766F83E4BD3F8E030C3B1A1
:104480003C4BD3F8EC301C426AD1ACB1083414F088
:10449000070F11D024F00704083404F007035BB1C0
:1044A0004FF0500383F31188BFF36F8FBFF34F8F2B
:1044B000FEE7FFF783FFE3E7002C53D02D4BD3F843
:1044C000E8309C4250D82B4B53F8D85F01E02B4684
:1044D00015466A68944202D92A68002AF7D1254A0B
:1044E000D2F8E020954241D01E6808362A681A604A
:1044F0006B681B1B102B10D9281910F0070F08D060
:104500004FF0500383F31188BFF36F8FBFF34F8FCA
:10451000FEE743606C60FFF77FFF6968154AD2F8D9
:10452000E8305B1AC2F8E830D2F8E420934202D2B5
:10453000104AC2F8E4300F4BD3F8EC300B436B60F9
:1045400000232B60FFF798F816F0070F10D04FF0FC
:10455000500383F31188BFF36F8FBFF34F8FFEE7D4
:104560000026EFE70026EDE70026EBE70026E9E767
:10457000304670BDDCBE002098B338B50446A0F1CB
:10458000080550F8042C1749D1F8EC100A4208D15C
:104590004FF0500383F31188BFF36F8FBFF34F8F3A
:1045A000FEE750F8080C40B14FF0500383F3118838
:1045B000BFF36F8FBFF34F8FFEE722EA010244F88B
:1045C000042CFEF7BFFF54F8041C064AD2F8E8306A
:1045D0000B44C2F8E8302846FFF71EFFFFF74CF8FF
:1045E00038BD7047DCBE002008B5054B1B7803B909
:1045F00008BD20214FF09040FCF708FDF8E700BF10
:10460000CCBF00200122014B5A707047CCBF002064
:1046100010B504467E48FBF7F5FF20B17C4B5B6A82
:1046200013F4801F29D07B4B00229A610121D961AC
:1046300019625A6234B3012C35D0022C00F0858007
:10464000032C00F09D807248FBF7AEFF002840F07D
:10465000D38071496E48FCF715F9002840F0D280EC
:104660006E4B40F2FF321A606FF060425A600022D7
:10467000DA60042199601A7510BDDE21684801F0E6
:10468000A7FED0E719464A610A604A608A60CA609C
:104690000A615F48FBF70AFF0028D4D0F521604883
:1046A00001F096FECFE75B4900234B614FF47F4258
:1046B0000A6044F21C024A604FF6FF728A604FF6AD
:1046C000FE72CA600B615248FBF7F0FE002830D141
:1046D000504901234B614FF4FF430B6047F6FC73D5
:1046E0004B604FF400438B6046F20403CB60002321
:1046F0000B614748FBF7DAFE08BB464902234B61D2
:104700004FF4FF430B6047F6FC734B604FF40043DC
:104710008B6045F20403CB6000230B613C48FBF740
:10472000C5FE00288FD04FF4A0713D4801F050FE27
:1047300089E740F20D113A4801F04AFEC8E740F21D
:104740002711374801F044FED7E7324900234B6177
:10475000FF220A6048F214024A604FF6FF728A6034
:104760004FF6FC72CA600B612948FBF79FFE0028D8
:104770003FF469AF4FF4AF71294801F029FE62E7B9
:10478000244900234B6180220A6004224A604FF6CC
:10479000FF728A604FF20402CA600B611C48FBF78B
:1047A00085FE18BB1F4B1B689B0343F4000242F0BD
:1047B0000402184901204861120C0A609BB243F0C0
:1047C00004034B604FF6FF738B604FF20403CB6022
:1047D00000230B610E48FBF769FE00283FF433AF5E
:1047E0004FF4CA710E4801F0F3FD2CE74FF4BD7190
:1047F0000B4801F0EDFDD5E74FF4CE71084801F00C
:10480000E7FD26E740F2A911054801F0E1FD27E7A1
:1048100040C1002068C000207F8F0300D0C000206E
:10482000747A00080C00002008B50E4B1B68B3F525
:10483000FF7F14D040F2FF12934203D0012B0CD023
:10484000032000E00020074A5268934201D0FFF79E
:10485000DFFE044B1A685A6008BD0120F3E702200E
:10486000F1E700BF0C000020044B1B68C00240EAC7
:104870000350C1F30A010843704700BF0C00002039
:1048800010B4C0F308540C80C0F3C8211180C0F3E9
:104890000A0018805DF8044B7047000010B50A4C00
:1048A0000823236140F480610120FFF7DDFF606091
:1048B000064B074A21460748FBF7D5FE08B90120F9
:1048C00010BD002010BD00BFD0C00020C4C000201B
:1048D000B4C0002040C1002038B50D460A4C012369
:1048E000236140F400711846FFF7BEFF6060074A7D
:1048F0001570074B21460748FBF7B5FE08B90120A4
:1049000038BD002038BD00BFD0C00020B4C000209A
:10491000C4C0002040C1002008B50C4B1870002214
:104920009A7001280AD00A4B1868FDF7CBFE0022C6
:1049300020214FF09040FCF764FB08BD054B9968BF
:10494000034B1868FDF788FE08BD00BFCCBF0020F0
:1049500074C100200C00002010B50B4CA0700B4B54
:104960001868FDF7AFFEA378012B06D000222021A6
:104970004FF09040FCF745FB10BD012220214FF085
:104980009040FCF73EFB10BDCCBF002074C100205E
:1049900038B5094B5B6813B1074B9B6803B138BD51
:1049A000054C012525703221044B9960044B186891
:1049B000FDF752FEA560F2E7CCBF00200C000020FE
:1049C00074C10020014B1868704700BF0C00002024
:1049D00008B5FFF7F7FF012814BF0020012008BD2C
:1049E000064B1B68A3F5FF72012A05D9012B01D0E4
:1049F0000120704700207047002070470C00002005
:104A000008B5012000F03CFF00F02EFF024B1860BB
:104A10000120FFF7FDFD08BD0C00002010B50A4C79
:104A2000012121610020FFF71FFF6060074A00237A
:104A30001370074B21460748FBF715FE08B9012004
:104A400010BD002010BD00BFD0C00020B4C00020A9
:104A5000C4C0002040C1002038B5831E612B01D99D
:104A6000002038BD04460B4D022129614FF4FF7030
:104A7000FFF7FAFE6860C4F30023074A137054700E
:104A8000064B29460648FBF7EEFD08B9012038BD64
:104A9000002038BDD0C00020B4C00020C4C0002019
:104AA00040C1002010B5094C0023236103210120DF
:104AB000FFF7DAFE6060064B064A21460648FBF720
:104AC000D2FD08B9012010BD002010BDD0C00020CB
:104AD000C4C00020B4C0002040C1002070B505460D
:104AE0000E46144B1B68012B13D0134C012323617A
:104AF00004212846FFF7B8FE6060BEB900230F4AC4
:104B000013700F4B0C490F48FBF7ADFD80B9012026
:104B100070BD012805D00028E7D10846FFF7FCFE4C
:104B2000E3E70846FFF7F8FE012070BD0123E6E742
:104B3000002070BD0C000020D0C00020B4C00020B8
:104B4000C4C0002040C1002070B505460E46144B7D
:104B50001B68012B13D0134C012323610521284628
:104B6000FFF782FE6060BEB900230F4A13700F4B3F
:104B70000C490F48FBF777FD80B9012070BD012873
:104B800005D00028E7D10846FFF7E6FEE3E7084630
:104B9000FFF7E2FE012070BD0123E6E7002070BDB3
:104BA0000C000020D0C00020B4C00020C4C00020F1
:104BB00040C1002038B50546154B1B68012B12D0AB
:104BC000012B1AD0134C00232361E0212846FFF764
:104BD0004BFE6060104B114A21461148FBF743FD24
:104BE00080B1002038BD0128EAD100F05FFE00F05E
:104BF0003BFE074B1860012038BD002DE2D100F0CC
:104C000055FEDFE700F030FE014B1860012038BD93
:104C10000C000020D0C00020C4C00020B4C0002080
:104C200040C1002038B50546124B1B68012B12D03D
:104C3000012B16D0104C00232361E1212846FFF7F9
:104C400013FE60600D4B0E4A21460E48FBF70BFD2C
:104C500060B1002038BD0128EAD100F06BFE0120D0
:104C600038BD002DE6D100F065FEE3E700F062FEFE
:104C7000012038BD0C000020D0C00020C4C000209E
:104C8000B4C0002040C1002038B505460B4C0120BF
:104C9000206140F20641FFF7E7FD606055B900234F
:104CA000074A1370074B05490748FBF7DCFC18B9A6
:104CB000012038BD0123F3E7002038BDD0C000201B
:104CC000B4C00020C4C0002040C1002038B500F0AE
:104CD0000DFD04461B4B1B6853B31B4B00225A703F
:104CE0001A7341F28831174B1868FDF7B5FC174D60
:104CF00004232B6100F0E8FCE221FFF7B5FD6860BA
:104D0000230E134A1370C4F307435370C4F30723ED
:104D10009370D4700F4B29460F48FBF7A4FC70B971
:104D2000094B587850B9084B1B7B002BF8D007E093
:104D300040F20531094801F04BFBCEE738BD0020B9
:104D400038BD00BF84C10020CCBF0020D0C00020EF
:104D5000B4C00020C4C0002040C10020747A000804
:104D600010B5044600F0E2FC154B1B68012B17D070
:104D700054B900F0EFFC044680B100F0B5FD00F03E
:104D8000D9FD00220F4B5A730E4A00239373D3733D
:104D90000D4A13605360FFF799FF0446204610BD8B
:104DA000012CE5D100F0D6FC04460028F6D000F036
:104DB0009BFD00F0BFFD0022024B5A73EEE700BFDF
:104DC0000C000020CCBF0020C8C00020064AD37BC6
:104DD0000649C854013303F00703D3730BB1002015
:104DE00070470120704700BFCCBF0020C8C0002022
:104DF00070B50546214B1B68012B0FD000F064FCF9
:104E0000C0B90121284600F0BDFD04462846FFF741
:104E1000DDFFA8B9201C18BF012070BD00F054FCB4
:104E20000128EBD10121284600F0ACFD003018BF6D
:104E3000012070BD0021284600F0A4FD0446E5E7EE
:104E40000F4C0823236100F03FFC0E4DA97BF0318D
:104E5000FFF70AFD60600C4E0C4B324621460C48B1
:104E6000FBF701FCB0FA80F464090023336073603F
:104E7000AB7B013303F00703AB73CBE70C000020DF
:104E8000D0C00020CCBF0020C8C00020C4C000207B
:104E900040C1002010B51F4B1B68012B12D01E4CC7
:104EA0000823236100F010FCE421FFF7DDFC6060C3
:104EB0001A4B1B4A21461B48FBF7D5FBA8B100241F
:104EC000204610BD00F000FC0128E8D100F01CFCD9
:104ED00004460028F4D000F08BFD134B5B7B0BB134
:104EE0001C46EDE700F030FDEAE700F0EDFB08B10D
:104EF0000124E5E700F008FC04460028E0D000F0BB
:104F000077FD094B5B7B0BB11C46D9E700F01CFD1C
:104F1000D6E700BF0C000020D0C00020C4C0002095
:104F2000C8C0002040C10020CCBF002038B50546D5
:104F3000114B1B68012B13D0104C00232361FE2161
:104F40002846FFF791FC606000F0DAFB0C4B02464C
:104F500021460C48FBF787FB60B93DB1012038BD05
:104F60000128E9D100F05CFC012038BD00F058FCBC
:104F7000012038BD002038BD0C000020D0C000202A
:104F8000C4C0002040C1002038B50546194B1B683D
:104F9000012B13D005B3184C00232361E5212846CB
:104FA000FFF762FC606000F0ABFB144B0246214649
:104FB0001348FBF758FBD0B9012038BD0128E9D1CF
:104FC000104800F0C3FD104B186800F0BFFD0F48FB
:104FD00000F0BCFD012038BD0A4800F0B7FD0A4BC7
:104FE000186800F0B3FD094800F0B0FDD3E70020D9
:104FF00038BD00BF0C000020D0C00020C4C000207D
:1050000040C10020887A00081C000020D07B0008E6
:1050100030B58BB0124B134A0021FBF799FBC0B996
:1050200001AC104D0FCD0FC495E8070084E80700D0
:105030000B4A08AB1068516803C300236A4601A9F4
:1050400009480068FDF73AFE0022084B5A600BB091
:1050500030BD4FF47A71064801F0BAF9E0E700BFBD
:10506000ACC0002090C000207CC10020CCBF00203C
:10507000747A000830B58BB0144B154A0121FBF748
:1050800067FBE8B901AC124D0FCD0FC495E80700DE
:1050900084E807000D4A08AB1068516803C3002379
:1050A0006A4601A90B480068FDF708FE20214FF071
:1050B0009040FBF7ABFF0022074B5A600BB030BDAE
:1050C0004FF47F71054801F083F9DBE7BCC0002095
:1050D000E8C000207CC10020CCBF0020747A00080A
:1050E000024A536801335360704700BFCCBF0020B1
:1050F000B0F5005F00D070470122014B1A74FAE747
:10510000CCBF002010B582B004460DF1020301AA05
:105110000DF106014068FFF7B3FBBDF80230032B29
:105120000FD040F2E222934214D004F11C03BDF8E8
:105130000220BDF80410BDF8060000F0DDFD02B04D
:1051400010BDBDF80630B3F5FF7FEED1034800F087
:10515000FDFCEAE70122024B1A73E6E7987A0008A1
:10516000CCBF002010B582B004460DF1020301AAA5
:105170000DF106014068FFF783FBBDF80230022BFA
:1051800001D002B010BD237F607F40EA03200205FA
:10519000044B5A60044B186000F072FB0220FFF7CA
:1051A0007DFBEEE7D0C000200C00002030B583B0BE
:1051B00005460DF1020301AA0DF106014068FFF753
:1051C0005FFBBDF80200A0F1E203152B00F2CF80D7
:1051D000DFE803F00BCD95CDCDCDCDCDCDCDCDCD73
:1051E000CDCD4040404040404040694B5B7C012B6E
:1051F0000ED800F0AFFA044698B90B219DF80200D2
:10520000FFF76AFB624B00225A749A740124B2E0E1
:1052100001225F4B9A740A21C0B2FFF75DFB0024A4
:10522000A9E0297F6B7F43EA0121AB7F43EA012399
:10523000E97F41EA0321574B186800F077FA544B95
:105240000022DA745A6101225A749DF80200FFF7B5
:1052500025FB90E04E4B5B7C012B0BD0022B0CD03E
:105260000C21C0B2FFF738FB494B00225A740124CD
:105270009C7480E00222464B5A74454BDB7C00F064
:105280000F02934215D1013303F00703404AD37450
:1052900000242B69A34221D92B190121187F00F08A
:1052A00071FB80B920214FF09040FBF7AFFE013435
:1052B000EFE70D21C0B2FFF70FFB354B00225A7408
:1052C00001249C7457E00E219DF80200FFF704FBB7
:1052D0002F4B00225A7401249C744CE02C4A5369D1
:1052E00001335361012446E0294D0124AC740E21A1
:1052F0009DF80200FFF7F0FA00236B743BE00024F6
:105300002B69A34208D92B190121187F00F03AFB21
:105310000028E9D10134F3E700F0F6F9044668B15A
:1053200000F066FBA8B91A4B9B7CEBB10022184B2E
:105330005A749DF80200FFF7B1FA1CE0144D0124E5
:10534000AC740F219DF80200FFF7C6FA00236B74BE
:1053500011E00E219DF80200FFF7BEFA0C4B00226F
:105360005A7401229A7406E000F0EEFADEE7084B68
:105370005B7C1BB90024204603B030BD1021C0B2B5
:10538000FFF7AAFA024B00225A7401249C74F2E738
:10539000CCBF00200C00002010B582B00446FFF7FF
:1053A00005FF08B102B010BD0DF1020301AA0DF115
:1053B00006016068FFF764FABDF80200E02836D005
:1053C0000AD8042825D005282AD001280DD001218B
:1053D000C0B2FFF781FAE5E7E5282FD0FE283BD0E1
:1053E000E128F4D100F0A6FA0EE000F085F90422DD
:1053F0001B4B1A61020E1B4B1A70C0F307425A7006
:10540000C0F307229A70D8709DF80200FFF746FAA1
:10541000C8E7207F003018BF0120FFF77DFAF3E7CF
:10542000207F003018BF0120FFF796FAECE700F06C
:105430003DFA00F019FA0C4B1860B3E70422084B50
:105440001A610A4A1178074B19705178597091788E
:105450009970D278DA70D7E700F0E2F9A2E700BFDE
:10546000D0C00020B4C000200C000020F07900085B
:1054700000B58BB000F01CFB10B90BB05DF804FB5D
:1054800000F0CAFAFFF7D0F92C4B1B7CA3B12C4BD0
:105490001B68012B1CD040F2FF12934226D04FF420
:1054A00000512848FBF7A6FD003018BF0120FFF788
:1054B000EBFB0022214B1A7400231A4601A9224853
:1054C0000068FDF7C9FC012820D0FFF761FAD4E796
:1054D0004FF400511B48FBF78DFD18B91B4800F035
:1054E00035FBE6E71A4800F031FBE2E74FF40051E4
:1054F0001448FBF77FFD0028DBD14FF4FF72104BFF
:105500001A60FFF791F9FFF7CDFAD2E70C4B1B6851
:10551000B3F5FF7F0DD040F2FF129342D5D0012B9F
:1055200003D001A8FFF738FFCFE701A8FFF7EAFD96
:10553000CBE701A8FFF716FEC7E700BFCCBF0020EE
:105540000C000020000800487CC10020AC7A000854
:10555000C07A000808B500F087F90F4B18600020EA
:10556000FFF756F800F0F6F888B140F6C4120A4B7F
:105570009A60094B9968094B1868FDF76DF801228C
:10558000074B1A70FFF774FFFDF73CF8FAE74FF48A
:105590007A72014B9A60ECE70C00002074C1002085
:1055A000CCBF00208268B0F9003003EBD373B2EBBC
:1055B000630FACBF012000207047034668B38268C8
:1055C000002A2CDD72B6B0F90420013212B28280BA
:1055D000B0F90000824201DB00229A80D868B3F95A
:1055E0000420825C0A709A68013A9A600A780A2A52
:1055F00004D00D2A0DD072B9012200E001222AB197
:10560000B3F91020002A01DD013A1A8262B60120A6
:1056100070470122F3E70022F1E7002070470020E5
:10562000704740B172B6002282600282B0F9002059
:105630004280828062B67047002831D008B50346A8
:10564000B0F900009A6890420BDCB3F910200AB15F
:10565000002008BD184672B6FFF7E3FF62B60020CF
:1056600008BD72B6B3F90220013212B25A80B3F902
:105670000000824201DB00225A80D868B3F9022080
:1056800081549A6801329A600A2902D00D2900D00B
:1056900019B9B3F9102001321A8262B6012008BD8F
:1056A00000207047034650B151B15AB100209860B4
:1056B00018821A809A805A80D960184670477047BD
:1056C0000020704700207047014B1868704700BFEA
:1056D00018000020014B1860704700BF1800002020
:1056E000014B1860704700BF10C10020014B1868C3
:1056F000704700BF10C1002000487047D47A0008EE
:105700000048704708C10020064B1A68064B1B680A
:105710009A4202D003D30020704700207047012036
:10572000704700BF10C1002024C1002010B50C46F6
:105730000022064B1A60FFF7CDFF2046FFF7D0FF8F
:10574000FFF7D4FF024B186010BD00BFE4BF00207C
:1057500024C10020012070470F4B188801388002B7
:1057600000F100604368B3F1FF3F01D000207047B3
:105770000A4981420CD20023FF2B06DC51F823207A
:10578000B2F1FF3F06D10133F6E701F58061F0E7A2
:105790000120704700207047CCF7FF1F0000010870
:1057A0000E4B1B88013B9B0203F100635A680C4BB4
:1057B0009A4201D0002070470022FF2A0ADC9300A1
:1057C00003F1006303F580331B68B3F1FF3F03D19E
:1057D0000132F2E70020704701207047CCF7FF1F2D
:1057E00033CC55AA80B500AF094A0A4B13605968FB
:1057F000094B196072B6002181F31488126812688F
:1058000082F308881B68054A13609847FEE700BFCB
:105810001CC100200000010814C1002028C1002084
:1058200080B500AF0D4A4FF00063136059680C4B10
:1058300019604FF0500181F31188BFF36F8FBFF3F0
:105840004F8F72B6002181F314881268126882F3B8
:1058500008881B68034A13609847FEE720C10020B0
:1058600014C1002028C10020044B1B88013B9B026F
:1058700003F100631888C0F308007047CCF7FF1FDE
:1058800038B50546084B1C88013CA40204F10064AD
:10589000FBF720FA2A46002321460220FBF770FA84
:1058A000FBF732FA38BD00BFCCF7FF1F10B50C4B29
:1058B0001C88A40204F1FF6404F5FF24FBF70AFA34
:1058C0002046FBF7ABFA4CF25030FBF727FA054ABB
:1058D000136923F002031361FBF716FA10BD00BF32
:1058E000CCF7FF1F0020024038B50F4B1D88AD02DA
:1058F00005F1FF6505F5FF250C4C11E0FBF7EAF912
:105900002046FBF78BFA4CF25030FBF707FA084AB7
:10591000136923F002031361FBF7F6F904F5006441
:10592000AC42EBD338BD00BFCCF7FF1F000001082D
:105930000020024010B5FFF797FF0446FFF7B6FFBF
:105940002046FFF79DFF10BD10B50D4B1C88013C94
:10595000A40204F100640434FFF7ECFFFBF7BAF98A
:1059600005A3D3E9002321460220FBF709FAFBF740
:10597000CBF910BDAFF3008033CC55AA0000000076
:10598000CCF7FF1F38B5174B1B6833B94FF0FF3406
:105990004FF0FF35144AC2E90045134AD054013391
:1059A0005A4203F0070302F0070258BF53420D4A60
:1059B00013609BB909B9002411E0FBF78BF90B4D7B
:1059C000094BD3E9002329680320FBF7D9F90446E2
:1059D000FBF79AF92B6808332B6000E0002420467F
:1059E00038BD00BFE4BF002008C1002024C1002052
:1059F00010B5FBF76FF9064BD3E900230549096899
:105A00000320FBF7BDF90446FBF77EF9204610BDE5
:105A100008C1002024C1002030B583B0184B1C8879
:105A2000184B1B790BB103B030BD4020FEF720FDB1
:105A30000546631E9B0203F1006301936FF07843F8
:105A400003EB8423009323464FF000620E4900F0DD
:105A5000ABFE284600F07AF8FFF77CFE70B10B4AE7
:105A60000B49284600F0A0FE284600F06FF82846B3
:105A7000FEF782FD0122034B1A71D4E7054AEFE7D6
:105A8000CCF7FF1FE4BF0020EC7A0008E07A0008A2
:105A9000187B0008E47A0008704708B5FEF7BEFFDF
:105AA00008BD00000122014B1A707047EABF0020B8
:105AB000014B5878704700BFEABF00200122014B1C
:105AC0009A707047EABF002070B50446184BDB7827
:105AD0009BB9174B197929B30122154B5A71154DF2
